:060000000A128A110E290C
:10000800F000030EF1000B1800210B190821710EE6
:080018008300F00E700E0900D8
:1002000003138312061C880A861C88030B1008003F
:1002100003138312B23081000B1108001921302121
:10022000412148213921031383120808A0005521D8
:1002300015290317831688018901031383160614F1
:100240008614850187018901C03088008113151447
:100250009514031383128501870188018901080021
:1002600003138316161496140313831206080B1037
:100270000800031383128B178B150B108B160B11B1
:100280000800031383160F140F178F160F1608009C
:1002900003138316811281110115811401140313B4
:1002A0008312B23081000B1108002008643C8900E1
:1002B000A700A80A031C5629A803280885000310D4
:1002C0002708643E89000A3C8900A700A90A031C8C
:0A02D0006329A9032908870008002C
:100400008A018A140F3982073F3406345B344F3433
:1004100066346D347D3407347F346F3477347C3404
:0804200039345E347934713483
:04400E00C430FF3F7C
:00000001FF
