:060000000A128A110F290B
:10000800F000030EF1000B1800210B190821710EE6
:080018008300F00E700E0900D8
:1002000003138312061C850A861C85030B10080045
:10021000642103138312B23081000B1108001B21EB
:100220003021412148213921031383120508A00000
:1002300055215D21162903178316880189010313AF
:1002400083160614861485018701C0308800811347
:100250001514951403138312850187018801080082
:1002600003138316161496140313831206080B1037
:100270000800031383128B178B150B108B160B11B1
:100280000800031383160F140F178F160F1608009C
:1002900003138316811281110115811401140313B4
:1002A0008312B23081000B1108000F302005A2002C
:1002B000F0302005A300A30E080022080022A400AD
:1002C00023080022A50008000810881021186D29B5
:1002D00024088700881421140800250887000814C2
:0402E00021100800E1
:100400008A018A140F3982073F3406345B344F3433
:1004100066346D347D3407347F346F3477347C3404
:0804200039345E347934713483
:04400E00C430FF3F7C
:00000001FF
